{
  "contracts/klaytn-contracts/mocks/KIP13CheckerMock.sol": {
    "KIP13CheckerMock": {
      "abi": [
        {
          "constant": true,
          "inputs": [
            {
              "name": "account",
              "type": "address"
            },
            {
              "name": "interfaceIds",
              "type": "bytes4[]"
            }
          ],
          "name": "supportsAllInterfaces",
          "outputs": [
            {
              "name": "",
              "type": "bool"
            }
          ],
          "payable": false,
          "stateMutability": "view",
          "type": "function"
        },
        {
          "constant": true,
          "inputs": [
            {
              "name": "account",
              "type": "address"
            }
          ],
          "name": "supportsKIP13",
          "outputs": [
            {
              "name": "",
              "type": "bool"
            }
          ],
          "payable": false,
          "stateMutability": "view",
          "type": "function"
        },
        {
          "constant": true,
          "inputs": [
            {
              "name": "account",
              "type": "address"
            },
            {
              "name": "interfaceId",
              "type": "bytes4"
            }
          ],
          "name": "supportsInterface",
          "outputs": [
            {
              "name": "",
              "type": "bool"
            }
          ],
          "payable": false,
          "stateMutability": "view",
          "type": "function"
        }
      ],
      "evm": {
        "bytecode": {
          "linkReferences": {},
          "object": "608060405234801561001057600080fd5b5061032b806100206000396000f3fe608060405234801561001057600080fd5b50600436106100415760003560e01c80634b9dd90414610046578063aad8e2c21461010d578063d905700714610133575b600080fd5b6100f96004803603604081101561005c57600080fd5b6001600160a01b03823516919081019060408101602082013564010000000081111561008757600080fd5b82018360208201111561009957600080fd5b803590602001918460208302840111640100000000831117156100bb57600080fd5b919080806020026020016040519081016040528093929190818152602001838360200280828437600092019190915250929550610169945050505050565b604080519115158252519081900360200190f35b6100f96004803603602081101561012357600080fd5b50356001600160a01b031661018d565b6100f96004803603604081101561014957600080fd5b5080356001600160a01b031690602001356001600160e01b0319166101a1565b60006101846001600160a01b0384168363ffffffff6101bc16565b90505b92915050565b6000610187826001600160a01b031661021c565b60006101846001600160a01b0384168363ffffffff61025216565b60006101c78361021c565b6101d357506000610187565b60005b8251811015610212576101fc848483815181106101ef57fe5b602002602001015161026a565b61020a576000915050610187565b6001016101d6565b5060019392505050565b600061023282600160e01b6301ffc9a70261026a565b8015610187575061024b826001600160e01b031961026a565b1592915050565b600061025d8361021c565b8015610184575061018483835b60008060006102798585610290565b915091508180156102875750805b95945050505050565b604080516001600160e01b031983166024808301919091528251808303909101815260449091018252602081810180516001600160e01b0316600160e01b6301ffc9a702178152825193516000808252948594939091908183858b617530fa905190989097509550505050505056fea165627a7a72305820bfdbd21d5a774db3858df957830ec7c40d42522ac69ca656ac509af60ad2a9a40029",
          "opcodes": "PUSH1 0x80 PUSH1 0x40 MSTORE CALLVALUE DUP1 ISZERO PUSH2 0x10 JUMPI PUSH1 0x0 DUP1 REVERT JUMPDEST POP PUSH2 0x32B DUP1 PUSH2 0x20 PUSH1 0x0 CODECOPY PUSH1 0x0 RETURN INVALID PUSH1 0x80 PUSH1 0x40 MSTORE CALLVALUE DUP1 ISZERO PUSH2 0x10 JUMPI PUSH1 0x0 DUP1 REVERT JUMPDEST POP PUSH1 0x4 CALLDATASIZE LT PUSH2 0x41 JUMPI PUSH1 0x0 CALLDATALOAD PUSH1 0xE0 SHR DUP1 PUSH4 0x4B9DD904 EQ PUSH2 0x46 JUMPI DUP1 PUSH4 0xAAD8E2C2 EQ PUSH2 0x10D JUMPI DUP1 PUSH4 0xD9057007 EQ PUSH2 0x133 JUMPI JUMPDEST PUSH1 0x0 DUP1 REVERT JUMPDEST PUSH2 0xF9 PUSH1 0x4 DUP1 CALLDATASIZE SUB PUSH1 0x40 DUP2 LT ISZERO PUSH2 0x5C JUMPI PUSH1 0x0 DUP1 REVERT JUMPDEST PUSH1 0x1 PUSH1 0x1 PUSH1 0xA0 SHL SUB DUP3 CALLDATALOAD AND SWAP2 SWAP1 DUP2 ADD SWAP1 PUSH1 0x40 DUP2 ADD PUSH1 0x20 DUP3 ADD CALLDATALOAD PUSH5 0x100000000 DUP2 GT ISZERO PUSH2 0x87 JUMPI PUSH1 0x0 DUP1 REVERT JUMPDEST DUP3 ADD DUP4 PUSH1 0x20 DUP3 ADD GT ISZERO PUSH2 0x99 JUMPI PUSH1 0x0 DUP1 REVERT JUMPDEST DUP1 CALLDATALOAD SWAP1 PUSH1 0x20 ADD SWAP2 DUP5 PUSH1 0x20 DUP4 MUL DUP5 ADD GT PUSH5 0x100000000 DUP4 GT OR ISZERO PUSH2 0xBB JUMPI PUSH1 0x0 DUP1 REVERT JUMPDEST SWAP2 SWAP1 DUP1 DUP1 PUSH1 0x20 MUL PUSH1 0x20 ADD PUSH1 0x40 MLOAD SWAP1 DUP2 ADD PUSH1 0x40 MSTORE DUP1 SWAP4 SWAP3 SWAP2 SWAP1 DUP2 DUP2 MSTORE PUSH1 0x20 ADD DUP4 DUP4 PUSH1 0x20 MUL DUP1 DUP3 DUP5 CALLDATACOPY PUSH1 0x0 SWAP3 ADD SWAP2 SWAP1 SWAP2 MSTORE POP SWAP3 SWAP6 POP PUSH2 0x169 SWAP5 POP POP POP POP POP JUMP JUMPDEST PUSH1 0x40 DUP1 MLOAD SWAP2 ISZERO ISZERO DUP3 MSTORE MLOAD SWAP1 DUP2 SWAP1 SUB PUSH1 0x20 ADD SWAP1 RETURN JUMPDEST PUSH2 0xF9 PUSH1 0x4 DUP1 CALLDATASIZE SUB PUSH1 0x20 DUP2 LT ISZERO PUSH2 0x123 JUMPI PUSH1 0x0 DUP1 REVERT JUMPDEST POP CALLDATALOAD PUSH1 0x1 PUSH1 0x1 PUSH1 0xA0 SHL SUB AND PUSH2 0x18D JUMP JUMPDEST PUSH2 0xF9 PUSH1 0x4 DUP1 CALLDATASIZE SUB PUSH1 0x40 DUP2 LT ISZERO PUSH2 0x149 JUMPI PUSH1 0x0 DUP1 REVERT JUMPDEST POP DUP1 CALLDATALOAD PUSH1 0x1 PUSH1 0x1 PUSH1 0xA0 SHL SUB AND SWAP1 PUSH1 0x20 ADD CALLDATALOAD PUSH1 0x1 PUSH1 0x1 PUSH1 0xE0 SHL SUB NOT AND PUSH2 0x1A1 JUMP JUMPDEST PUSH1 0x0 PUSH2 0x184 PUSH1 0x1 PUSH1 0x1 PUSH1 0xA0 SHL SUB DUP5 AND DUP4 PUSH4 0xFFFFFFFF PUSH2 0x1BC AND JUMP JUMPDEST SWAP1 POP JUMPDEST SWAP3 SWAP2 POP POP JUMP JUMPDEST PUSH1 0x0 PUSH2 0x187 DUP3 PUSH1 0x1 PUSH1 0x1 PUSH1 0xA0 SHL SUB AND PUSH2 0x21C JUMP JUMPDEST PUSH1 0x0 PUSH2 0x184 PUSH1 0x1 PUSH1 0x1 PUSH1 0xA0 SHL SUB DUP5 AND DUP4 PUSH4 0xFFFFFFFF PUSH2 0x252 AND JUMP JUMPDEST PUSH1 0x0 PUSH2 0x1C7 DUP4 PUSH2 0x21C JUMP JUMPDEST PUSH2 0x1D3 JUMPI POP PUSH1 0x0 PUSH2 0x187 JUMP JUMPDEST PUSH1 0x0 JUMPDEST DUP3 MLOAD DUP2 LT ISZERO PUSH2 0x212 JUMPI PUSH2 0x1FC DUP5 DUP5 DUP4 DUP2 MLOAD DUP2 LT PUSH2 0x1EF JUMPI INVALID JUMPDEST PUSH1 0x20 MUL PUSH1 0x20 ADD ADD MLOAD PUSH2 0x26A JUMP JUMPDEST PUSH2 0x20A JUMPI PUSH1 0x0 SWAP2 POP POP PUSH2 0x187 JUMP JUMPDEST PUSH1 0x1 ADD PUSH2 0x1D6 JUMP JUMPDEST POP PUSH1 0x1 SWAP4 SWAP3 POP POP POP JUMP JUMPDEST PUSH1 0x0 PUSH2 0x232 DUP3 PUSH1 0x1 PUSH1 0xE0 SHL PUSH4 0x1FFC9A7 MUL PUSH2 0x26A JUMP JUMPDEST DUP1 ISZERO PUSH2 0x187 JUMPI POP PUSH2 0x24B DUP3 PUSH1 0x1 PUSH1 0x1 PUSH1 0xE0 SHL SUB NOT PUSH2 0x26A JUMP JUMPDEST ISZERO SWAP3 SWAP2 POP POP JUMP JUMPDEST PUSH1 0x0 PUSH2 0x25D DUP4 PUSH2 0x21C JUMP JUMPDEST DUP1 ISZERO PUSH2 0x184 JUMPI POP PUSH2 0x184 DUP4 DUP4 JUMPDEST PUSH1 0x0 DUP1 PUSH1 0x0 PUSH2 0x279 DUP6 DUP6 PUSH2 0x290 JUMP JUMPDEST SWAP2 POP SWAP2 POP DUP2 DUP1 ISZERO PUSH2 0x287 JUMPI POP DUP1 JUMPDEST SWAP6 SWAP5 POP POP POP POP POP JUMP JUMPDEST PUSH1 0x40 DUP1 MLOAD PUSH1 0x1 PUSH1 0x1 PUSH1 0xE0 SHL SUB NOT DUP4 AND PUSH1 0x24 DUP1 DUP4 ADD SWAP2 SWAP1 SWAP2 MSTORE DUP3 MLOAD DUP1 DUP4 SUB SWAP1 SWAP2 ADD DUP2 MSTORE PUSH1 0x44 SWAP1 SWAP2 ADD DUP3 MSTORE PUSH1 0x20 DUP2 DUP2 ADD DUP1 MLOAD PUSH1 0x1 PUSH1 0x1 PUSH1 0xE0 SHL SUB AND PUSH1 0x1 PUSH1 0xE0 SHL PUSH4 0x1FFC9A7 MUL OR DUP2 MSTORE DUP3 MLOAD SWAP4 MLOAD PUSH1 0x0 DUP1 DUP3 MSTORE SWAP5 DUP6 SWAP5 SWAP4 SWAP1 SWAP2 SWAP1 DUP2 DUP4 DUP6 DUP12 PUSH2 0x7530 STATICCALL SWAP1 MLOAD SWAP1 SWAP9 SWAP1 SWAP8 POP SWAP6 POP POP POP POP POP POP JUMP INVALID LOG1 PUSH6 0x627A7A723058 KECCAK256 0xbf 0xdb 0xd2 SAR GAS PUSH24 0x4DB3858DF957830EC7C40D42522AC69CA656AC509AF60AD2 0xa9 LOG4 STOP 0x29 "
        },
        "methodIdentifiers": {
          "supportsAllInterfaces(address,bytes4[])": "4b9dd904",
          "supportsInterface(address,bytes4)": "d9057007",
          "supportsKIP13(address)": "aad8e2c2"
        }
      }
    }
  }
}