{
  "contracts/InjeolmiPriceEstimator.sol": {
    "InjeolmiPriceEstimator": {
      "abi": [
        {
          "constant": true,
          "inputs": [
            {
              "name": "amountIn",
              "type": "uint256"
            }
          ],
          "name": "estimatePos",
          "outputs": [
            {
              "name": "amountOut",
              "type": "uint256"
            }
          ],
          "payable": false,
          "stateMutability": "view",
          "type": "function"
        }
      ],
      "evm": {
        "bytecode": {
          "linkReferences": {},
          "object": "6080604052600080546001600160a01b03191673c6a2ad8cc6e4a7e08fc37cc5954be07d499e765417905534801561003657600080fd5b506101bb806100466000396000f3fe608060405234801561001057600080fd5b506004361061002b5760003560e01c806321d9589114610030575b600080fd5b61004d6004803603602081101561004657600080fd5b503561005f565b60408051918252519081900360200190f35b6000805460408051600160e01b63fd435cb9028152730268dbed3832b87582b1fa508acf5958cbb1cd74600482015260248101849052905183926001600160a01b03169163fd435cb9916044808301926020929190829003018186803b1580156100c857600080fd5b505afa1580156100dc573d6000803e3d6000fd5b505050506040513d60208110156100f257600080fd5b505160408051600160e01b63e4161181028152730268dbed3832b87582b1fa508acf5958cbb1cd7460048201526024810186905290519192506001600160a01b0383169163e416118191604480820192602092909190829003018186803b15801561015c57600080fd5b505afa158015610170573d6000803e3d6000fd5b505050506040513d602081101561018657600080fd5b5051939250505056fea165627a7a72305820b2492f4d0d802ef26d4dd9144f929bc16e8af5d3855ce978ae8271c156e5577d0029",
          "opcodes": "PUSH1 0x80 PUSH1 0x40 MSTORE PUSH1 0x0 DUP1 SLOAD PUSH1 0x1 PUSH1 0x1 PUSH1 0xA0 SHL SUB NOT AND PUSH20 0xC6A2AD8CC6E4A7E08FC37CC5954BE07D499E7654 OR SWAP1 SSTORE CALLVALUE DUP1 ISZERO PUSH2 0x36 JUMPI PUSH1 0x0 DUP1 REVERT JUMPDEST POP PUSH2 0x1BB DUP1 PUSH2 0x46 PUSH1 0x0 CODECOPY PUSH1 0x0 RETURN INVALID PUSH1 0x80 PUSH1 0x40 MSTORE CALLVALUE DUP1 ISZERO PUSH2 0x10 JUMPI PUSH1 0x0 DUP1 REVERT JUMPDEST POP PUSH1 0x4 CALLDATASIZE LT PUSH2 0x2B JUMPI PUSH1 0x0 CALLDATALOAD PUSH1 0xE0 SHR DUP1 PUSH4 0x21D95891 EQ PUSH2 0x30 JUMPI JUMPDEST PUSH1 0x0 DUP1 REVERT JUMPDEST PUSH2 0x4D PUSH1 0x4 DUP1 CALLDATASIZE SUB PUSH1 0x20 DUP2 LT ISZERO PUSH2 0x46 JUMPI PUSH1 0x0 DUP1 REVERT JUMPDEST POP CALLDATALOAD PUSH2 0x5F JUMP JUMPDEST PUSH1 0x40 DUP1 MLOAD SWAP2 DUP3 MSTORE MLOAD SWAP1 DUP2 SWAP1 SUB PUSH1 0x20 ADD SWAP1 RETURN JUMPDEST PUSH1 0x0 DUP1 SLOAD PUSH1 0x40 DUP1 MLOAD PUSH1 0x1 PUSH1 0xE0 SHL PUSH4 0xFD435CB9 MUL DUP2 MSTORE PUSH20 0x268DBED3832B87582B1FA508ACF5958CBB1CD74 PUSH1 0x4 DUP3 ADD MSTORE PUSH1 0x24 DUP2 ADD DUP5 SWAP1 MSTORE SWAP1 MLOAD DUP4 SWAP3 PUSH1 0x1 PUSH1 0x1 PUSH1 0xA0 SHL SUB AND SWAP2 PUSH4 0xFD435CB9 SWAP2 PUSH1 0x44 DUP1 DUP4 ADD SWAP3 PUSH1 0x20 SWAP3 SWAP2 SWAP1 DUP3 SWAP1 SUB ADD DUP2 DUP7 DUP1 EXTCODESIZE ISZERO DUP1 ISZERO PUSH2 0xC8 JUMPI PUSH1 0x0 DUP1 REVERT JUMPDEST POP GAS STATICCALL ISZERO DUP1 ISZERO PUSH2 0xDC JUMPI RETURNDATASIZE PUSH1 0x0 DUP1 RETURNDATACOPY RETURNDATASIZE PUSH1 0x0 REVERT JUMPDEST POP POP POP POP PUSH1 0x40 MLOAD RETURNDATASIZE PUSH1 0x20 DUP2 LT ISZERO PUSH2 0xF2 JUMPI PUSH1 0x0 DUP1 REVERT JUMPDEST POP MLOAD PUSH1 0x40 DUP1 MLOAD PUSH1 0x1 PUSH1 0xE0 SHL PUSH4 0xE4161181 MUL DUP2 MSTORE PUSH20 0x268DBED3832B87582B1FA508ACF5958CBB1CD74 PUSH1 0x4 DUP3 ADD MSTORE PUSH1 0x24 DUP2 ADD DUP7 SWAP1 MSTORE SWAP1 MLOAD SWAP2 SWAP3 POP PUSH1 0x1 PUSH1 0x1 PUSH1 0xA0 SHL SUB DUP4 AND SWAP2 PUSH4 0xE4161181 SWAP2 PUSH1 0x44 DUP1 DUP3 ADD SWAP3 PUSH1 0x20 SWAP3 SWAP1 SWAP2 SWAP1 DUP3 SWAP1 SUB ADD DUP2 DUP7 DUP1 EXTCODESIZE ISZERO DUP1 ISZERO PUSH2 0x15C JUMPI PUSH1 0x0 DUP1 REVERT JUMPDEST POP GAS STATICCALL ISZERO DUP1 ISZERO PUSH2 0x170 JUMPI RETURNDATASIZE PUSH1 0x0 DUP1 RETURNDATACOPY RETURNDATASIZE PUSH1 0x0 REVERT JUMPDEST POP POP POP POP PUSH1 0x40 MLOAD RETURNDATASIZE PUSH1 0x20 DUP2 LT ISZERO PUSH2 0x186 JUMPI PUSH1 0x0 DUP1 REVERT JUMPDEST POP MLOAD SWAP4 SWAP3 POP POP POP JUMP INVALID LOG1 PUSH6 0x627A7A723058 KECCAK256 0xb2 0x49 0x2f 0x4d 0xd DUP1 0x2e CALLCODE PUSH14 0x4DD9144F929BC16E8AF5D3855CE9 PUSH25 0xAE8271C156E5577D0029000000000000000000000000000000 "
        },
        "methodIdentifiers": {
          "estimatePos(uint256)": "21d95891"
        }
      }
    }
  }
}