{
  "_format": "hh-sol-artifact-1",
  "contractName": "SparrowStakingMix",
  "sourceName": "contracts/SparrowStakingMix.sol",
  "abi": [
    {
      "constant": true,
      "inputs": [],
      "name": "totalNFTs",
      "outputs": [
        {
          "name": "",
          "type": "uint256"
        }
      ],
      "payable": false,
      "stateMutability": "view",
      "type": "function"
    },
    {
      "constant": true,
      "inputs": [],
      "name": "nft",
      "outputs": [
        {
          "name": "",
          "type": "address"
        }
      ],
      "payable": false,
      "stateMutability": "view",
      "type": "function"
    },
    {
      "constant": true,
      "inputs": [
        {
          "name": "ids",
          "type": "uint256[]"
        }
      ],
      "name": "withdrawableReward",
      "outputs": [
        {
          "name": "",
          "type": "uint256"
        }
      ],
      "payable": false,
      "stateMutability": "view",
      "type": "function"
    },
    {
      "constant": true,
      "inputs": [],
      "name": "accRewardEach",
      "outputs": [
        {
          "name": "",
          "type": "uint256"
        }
      ],
      "payable": false,
      "stateMutability": "view",
      "type": "function"
    },
    {
      "constant": true,
      "inputs": [
        {
          "name": "",
          "type": "uint256"
        }
      ],
      "name": "nftRewardDebt",
      "outputs": [
        {
          "name": "",
          "type": "uint256"
        }
      ],
      "payable": false,
      "stateMutability": "view",
      "type": "function"
    },
    {
      "constant": true,
      "inputs": [],
      "name": "PRECISION",
      "outputs": [
        {
          "name": "",
          "type": "uint256"
        }
      ],
      "payable": false,
      "stateMutability": "view",
      "type": "function"
    },
    {
      "constant": true,
      "inputs": [],
      "name": "mix",
      "outputs": [
        {
          "name": "",
          "type": "address"
        }
      ],
      "payable": false,
      "stateMutability": "view",
      "type": "function"
    },
    {
      "constant": false,
      "inputs": [
        {
          "name": "ids",
          "type": "uint256[]"
        }
      ],
      "name": "withdrawReward",
      "outputs": [],
      "payable": false,
      "stateMutability": "nonpayable",
      "type": "function"
    },
    {
      "inputs": [
        {
          "name": "_mix",
          "type": "address"
        }
      ],
      "payable": false,
      "stateMutability": "nonpayable",
      "type": "constructor"
    },
    {
      "anonymous": false,
      "inputs": [
        {
          "indexed": true,
          "name": "owner",
          "type": "address"
        },
        {
          "indexed": true,
          "name": "id",
          "type": "uint256"
        },
        {
          "indexed": false,
          "name": "withdrawedMix",
          "type": "uint256"
        }
      ],
      "name": "WithdrawReward",
      "type": "event"
    }
  ],
  "bytecode": "0x608060405234801561001057600080fd5b50604051602080610bd98339810180604052602081101561003057600080fd5b5051600080546001600160a01b039092166001600160a01b0319909216919091179055610b77806100626000396000f3fe608060405234801561001057600080fd5b50600436106100885760003560e01c8063a1ea921a1161005b578063a1ea921a14610143578063aaf5eb6814610160578063be32cf8d14610168578063d1e846211461017057610088565b80630d0e96da1461008d57806347ccca02146100a75780634eb60369146100cb5780638f6547a51461013b575b600080fd5b6100956101e2565b60408051918252519081900360200190f35b6100af6101e8565b604080516001600160a01b039092168252519081900360200190f35b610095600480360360208110156100e157600080fd5b8101906020810181356401000000008111156100fc57600080fd5b82018360208201111561010e57600080fd5b8035906020019184602083028401116401000000008311171561013057600080fd5b509092509050610200565b610095610364565b6100956004803603602081101561015957600080fd5b503561036a565b61009561037c565b6100af610389565b6101e06004803603602081101561018657600080fd5b8101906020810181356401000000008111156101a157600080fd5b8201836020820111156101b357600080fd5b803590602001918460208302840111640100000000831117156101d557600080fd5b509092509050610398565b005b611f4181565b7329d05593116c443da54dabfb4e5322dea2fff8cd81565b6000805460408051600160e01b6370a08231028152306004820152905183926001600160a01b0316916370a08231916024808301926020929190829003018186803b15801561024e57600080fd5b505afa158015610262573d6000803e3d6000fd5b505050506040513d602081101561027857600080fd5b505160015490915060009061029490839063ffffffff6105ff16565b905060006102d768056bc75e2d631000006102bc6102c8611f4182878563ffffffff61064816565b9063ffffffff6106a416565b6003549063ffffffff6106e616565b90506000805b8681101561035757611f418888838181106102f457fe5b905060200201351061030557600080fd5b61034d610340600260008b8b8681811061031b57fe5b90506020020135815260200190815260200160002054856105ff90919063ffffffff16565b839063ffffffff6106e616565b91506001016102dd565b5093505050505b92915050565b60035481565b60026020526000908152604090205481565b68056bc75e2d6310000081565b6000546001600160a01b031681565b6103a0610743565b6000806103c168056bc75e2d631000006003546106a490919063ffffffff16565b905060005b8381101561056457611f418585838181106103dd57fe5b90506020020135106103ee57600080fd5b337329d05593116c443da54dabfb4e5322dea2fff8cd636352211e87878581811061041557fe5b905060200201356040518263ffffffff1660e01b81526004018082815260200191505060206040518083038186803b15801561045057600080fd5b505afa158015610464573d6000803e3d6000fd5b505050506040513d602081101561047a57600080fd5b50516001600160a01b03161461048f57600080fd5b60006104c9600260008888868181106104a457fe5b90506020020135815260200190815260200160002054846105ff90919063ffffffff16565b90506104db848263ffffffff6106e616565b935082600260008888868181106104ee57fe5b9050602002013581526020019081526020016000208190555085858381811061051357fe5b90506020020135336001600160a01b03167f48f1e4b8fb0469595617480e6784e40ab6b8c49209761b8e09305bf7b73e53de836040518082815260200191505060405180910390a3506001016103c6565b506000821161057257600080fd5b61057c3383610887565b60005460408051600160e01b6370a0823102815230600482015290516001600160a01b03909216916370a0823191602480820192602092909190829003018186803b1580156105ca57600080fd5b505afa1580156105de573d6000803e3d6000fd5b505050506040513d60208110156105f457600080fd5b505160015550505050565b600061064183836040518060400160405280601e81526020017f536166654d6174683a207375627472616374696f6e206f766572666c6f770000815250610a28565b9392505050565b6000826106575750600061035e565b8282028284828161066457fe5b041461064157604051600160e51b62461bcd028152600401808060200182810382526021815260200180610b2b6021913960400191505060405180910390fd5b600061064183836040518060400160405280601a81526020017f536166654d6174683a206469766973696f6e206279207a65726f000000000000815250610ac2565b6000828201838110156106415760408051600160e51b62461bcd02815260206004820152601b60248201527f536166654d6174683a206164646974696f6e206f766572666c6f770000000000604482015290519081900360640190fd5b6000805460408051600160e01b6370a0823102815230600482015290516001600160a01b03909216916370a0823191602480820192602092909190829003018186803b15801561079257600080fd5b505afa1580156107a6573d6000803e3d6000fd5b505050506040513d60208110156107bc57600080fd5b50516001549091506000906107d890839063ffffffff6105ff16565b90508015610883576108026102c8611f416102bc8468056bc75e2d6310000063ffffffff61064816565b60035560005460408051600160e01b6370a0823102815230600482015290516001600160a01b03909216916370a0823191602480820192602092909190829003018186803b15801561085357600080fd5b505afa158015610867573d6000803e3d6000fd5b505050506040513d602081101561087d57600080fd5b50516001555b5050565b6000805460408051600160e01b6370a0823102815230600482015290516001600160a01b03909216916370a0823191602480820192602092909190829003018186803b1580156108d657600080fd5b505afa1580156108ea573d6000803e3d6000fd5b505050506040513d602081101561090057600080fd5b505190508082111561099a576000805460408051600160e01b63a9059cbb0281526001600160a01b038781166004830152602482018690529151919092169263a9059cbb92604480820193602093909283900390910190829087803b15801561096857600080fd5b505af115801561097c573d6000803e3d6000fd5b505050506040513d602081101561099257600080fd5b50610a239050565b6000805460408051600160e01b63a9059cbb0281526001600160a01b038781166004830152602482018790529151919092169263a9059cbb92604480820193602093909283900390910190829087803b1580156109f657600080fd5b505af1158015610a0a573d6000803e3d6000fd5b505050506040513d6020811015610a2057600080fd5b50505b505050565b60008184841115610aba57604051600160e51b62461bcd0281526004018080602001828103825283818151815260200191508051906020019080838360005b83811015610a7f578181015183820152602001610a67565b50505050905090810190601f168015610aac5780820380516001836020036101000a031916815260200191505b509250505060405180910390fd5b505050900390565b60008183610b1457604051600160e51b62461bcd028152602060048201818152835160248401528351909283926044909101919085019080838360008315610a7f578181015183820152602001610a67565b506000838581610b2057fe5b049594505050505056fe536166654d6174683a206d756c7469706c69636174696f6e206f766572666c6f77a165627a7a7230582038fec23e9db1dbcae59fa221307972fb23377b0c37479246e164ab643fb87e2a0029",
  "linkReferences": {},
  "deployedLinkReferences": {}
}