{
  "_format": "hh-sol-artifact-1",
  "contractName": "SparrowStaking",
  "sourceName": "contracts/SparrowStaking.sol",
  "abi": [
    {
      "constant": true,
      "inputs": [],
      "name": "initialSIjmAmountPerId",
      "outputs": [
        {
          "name": "",
          "type": "uint256"
        }
      ],
      "payable": false,
      "stateMutability": "view",
      "type": "function"
    },
    {
      "constant": true,
      "inputs": [],
      "name": "totalNFTs",
      "outputs": [
        {
          "name": "",
          "type": "uint256"
        }
      ],
      "payable": false,
      "stateMutability": "view",
      "type": "function"
    },
    {
      "constant": true,
      "inputs": [],
      "name": "ijm",
      "outputs": [
        {
          "name": "",
          "type": "address"
        }
      ],
      "payable": false,
      "stateMutability": "view",
      "type": "function"
    },
    {
      "constant": true,
      "inputs": [],
      "name": "initialized",
      "outputs": [
        {
          "name": "",
          "type": "bool"
        }
      ],
      "payable": false,
      "stateMutability": "view",
      "type": "function"
    },
    {
      "constant": true,
      "inputs": [],
      "name": "nft",
      "outputs": [
        {
          "name": "",
          "type": "address"
        }
      ],
      "payable": false,
      "stateMutability": "view",
      "type": "function"
    },
    {
      "constant": false,
      "inputs": [
        {
          "name": "id",
          "type": "uint256"
        }
      ],
      "name": "withdrawReward",
      "outputs": [],
      "payable": false,
      "stateMutability": "nonpayable",
      "type": "function"
    },
    {
      "constant": true,
      "inputs": [
        {
          "name": "id",
          "type": "uint256"
        }
      ],
      "name": "withdrawableReward",
      "outputs": [
        {
          "name": "",
          "type": "uint256"
        }
      ],
      "payable": false,
      "stateMutability": "view",
      "type": "function"
    },
    {
      "constant": true,
      "inputs": [],
      "name": "initialIjmAmount",
      "outputs": [
        {
          "name": "",
          "type": "uint256"
        }
      ],
      "payable": false,
      "stateMutability": "view",
      "type": "function"
    },
    {
      "constant": true,
      "inputs": [
        {
          "name": "id",
          "type": "uint256"
        }
      ],
      "name": "nftSIjmAmount",
      "outputs": [
        {
          "name": "",
          "type": "uint256"
        }
      ],
      "payable": false,
      "stateMutability": "view",
      "type": "function"
    },
    {
      "constant": false,
      "inputs": [],
      "name": "initialize",
      "outputs": [],
      "payable": false,
      "stateMutability": "nonpayable",
      "type": "function"
    },
    {
      "constant": true,
      "inputs": [],
      "name": "sIjm",
      "outputs": [
        {
          "name": "",
          "type": "address"
        }
      ],
      "payable": false,
      "stateMutability": "view",
      "type": "function"
    },
    {
      "constant": true,
      "inputs": [],
      "name": "baseDepositedIjm",
      "outputs": [
        {
          "name": "",
          "type": "uint256"
        }
      ],
      "payable": false,
      "stateMutability": "view",
      "type": "function"
    },
    {
      "constant": true,
      "inputs": [
        {
          "name": "",
          "type": "uint256"
        }
      ],
      "name": "nftSIjmInitialized",
      "outputs": [
        {
          "name": "",
          "type": "bool"
        }
      ],
      "payable": false,
      "stateMutability": "view",
      "type": "function"
    },
    {
      "inputs": [
        {
          "name": "_ijm",
          "type": "address"
        },
        {
          "name": "_sIjm",
          "type": "address"
        }
      ],
      "payable": false,
      "stateMutability": "nonpayable",
      "type": "constructor"
    },
    {
      "anonymous": false,
      "inputs": [
        {
          "indexed": true,
          "name": "initializer",
          "type": "address"
        },
        {
          "indexed": false,
          "name": "initialSIjmAmountPerId",
          "type": "uint256"
        }
      ],
      "name": "Initialize",
      "type": "event"
    },
    {
      "anonymous": false,
      "inputs": [
        {
          "indexed": true,
          "name": "owner",
          "type": "address"
        },
        {
          "indexed": true,
          "name": "id",
          "type": "uint256"
        },
        {
          "indexed": false,
          "name": "withdrawedIjm",
          "type": "uint256"
        }
      ],
      "name": "WithdrawReward",
      "type": "event"
    }
  ],
  "bytecode": "0x60806040526a069e4714401532e6a0000060025534801561001f57600080fd5b50604051604080610b058339810180604052604081101561003f57600080fd5b508051602090910151600080546001600160a01b039384166001600160a01b03199182161790915560018054939092169216919091179055610a7f806100866000396000f3fe608060405234801561001057600080fd5b50600436106100cf5760003560e01c80635c47bbc41161008c5780638129fc1c116100665780638129fc1c1461019f578063cfaa6fd3146101a7578063dbe7b618146101af578063fdd834d2146101b7576100cf565b80635c47bbc41461015d57806363de213e1461017a578063763c392614610182576100cf565b80630baf05b0146100d45780630d0e96da146100ee578063110d4025146100f6578063158ef93e1461011a57806347ccca0214610136578063523a3f081461013e575b600080fd5b6100dc6101d4565b60408051918252519081900360200190f35b6100dc6101da565b6100fe6101e0565b604080516001600160a01b039092168252519081900360200190f35b6101226101ef565b604080519115158252519081900360200190f35b6100fe6101ff565b61015b6004803603602081101561015457600080fd5b5035610217565b005b6100dc6004803603602081101561017357600080fd5b5035610508565b6100dc6105bb565b6100dc6004803603602081101561019857600080fd5b50356105c1565b61015b6105f2565b6100fe610818565b6100dc610827565b610122600480360360208110156101cd57600080fd5b5035610834565b60035481565b611f4181565b6000546001600160a01b031681565b600154600160a01b900460ff1681565b7329d05593116c443da54dabfb4e5322dea2fff8cd81565b611f41811061022557600080fd5b336001600160a01b03167329d05593116c443da54dabfb4e5322dea2fff8cd6001600160a01b0316636352211e836040518263ffffffff1660e01b81526004018082815260200191505060206040518083038186803b15801561028757600080fd5b505afa15801561029b573d6000803e3d6000fd5b505050506040513d60208110156102b157600080fd5b50516001600160a01b0316146102c657600080fd5b60008181526004602052604090205460ff16610305576003546000828152600560209081526040808320939093556004905220805460ff191660011790555b60015460408051600160e01b6323cbc88f028152683635c9adc5dea00000600482015290516000926001600160a01b0316916323cbc88f916024808301926020929190829003018186803b15801561035c57600080fd5b505afa158015610370573d6000803e3d6000fd5b505050506040513d602081101561038657600080fd5b5051600083815260056020526040812054919250906103ab908363ffffffff61084916565b9050600081116103ba57600080fd5b60008381526005602090815260408083208590556001548151600160e31b6305c2fbcf0281526004810186905291516001600160a01b0390911692632e17de78926024808201939182900301818787803b15801561041757600080fd5b505af115801561042b573d6000803e3d6000fd5b505050506040513d602081101561044157600080fd5b50516000805460408051600160e01b63a9059cbb0281523360048201526024810185905290519394506001600160a01b039091169263a9059cbb92604480840193602093929083900390910190829087803b15801561049f57600080fd5b505af11580156104b3573d6000803e3d6000fd5b505050506040513d60208110156104c957600080fd5b5050604080518281529051859133917f48f1e4b8fb0469595617480e6784e40ab6b8c49209761b8e09305bf7b73e53de9181900360200190a350505050565b60006105b5683635c9adc5dea000006105a9600160009054906101000a90046001600160a01b03166001600160a01b03166371ca337d6040518163ffffffff1660e01b815260040160206040518083038186803b15801561056857600080fd5b505afa15801561057c573d6000803e3d6000fd5b505050506040513d602081101561059257600080fd5b505161059d866105c1565b9063ffffffff61089216565b9063ffffffff61084916565b92915050565b60025481565b60008181526004602052604081205460ff166105df576003546105b5565b5060009081526005602052604090205490565b600154600160a01b900460ff161561060957600080fd5b6001805474ff00000000000000000000000000000000000000001916600160a01b1790556000805460025460408051600160e01b6323b872dd0281523360048201523060248201526044810192909252516001600160a01b03909216926323b872dd926064808401936020939083900390910190829087803b15801561068e57600080fd5b505af11580156106a2573d6000803e3d6000fd5b505050506040513d60208110156106b857600080fd5b50506000805460015460025460408051600160e01b63095ea7b30281526001600160a01b039384166004820152602481019290925251919092169263095ea7b392604480820193602093909283900390910190829087803b15801561071c57600080fd5b505af1158015610730573d6000803e3d6000fd5b505050506040513d602081101561074657600080fd5b505060015460025460408051600160e11b63534a7e1d0281526004810192909252516107dc92611f41926001600160a01b039091169163a694fc3a916024808201926020929091908290030181600087803b1580156107a457600080fd5b505af11580156107b8573d6000803e3d6000fd5b505050506040513d60208110156107ce57600080fd5b50519063ffffffff6108ee16565b6003819055604080519182525133917ffb9d66c34fa43208534a846ef789547e25046760500fdf53af4204cbe4e16c89919081900360200190a2565b6001546001600160a01b031681565b683635c9adc5dea0000081565b60046020526000908152604090205460ff1681565b600061088b83836040518060400160405280601e81526020017f536166654d6174683a207375627472616374696f6e206f766572666c6f770000815250610930565b9392505050565b6000826108a1575060006105b5565b828202828482816108ae57fe5b041461088b57604051600160e51b62461bcd028152600401808060200182810382526021815260200180610a336021913960400191505060405180910390fd5b600061088b83836040518060400160405280601a81526020017f536166654d6174683a206469766973696f6e206279207a65726f0000000000008152506109ca565b600081848411156109c257604051600160e51b62461bcd0281526004018080602001828103825283818151815260200191508051906020019080838360005b8381101561098757818101518382015260200161096f565b50505050905090810190601f1680156109b45780820380516001836020036101000a031916815260200191505b509250505060405180910390fd5b505050900390565b60008183610a1c57604051600160e51b62461bcd02815260206004820181815283516024840152835190928392604490910191908501908083836000831561098757818101518382015260200161096f565b506000838581610a2857fe5b049594505050505056fe536166654d6174683a206d756c7469706c69636174696f6e206f766572666c6f77a165627a7a7230582068aef2c1ed78227eeadefa13fe84f506a19edb4d87217a2d1913fcba20143e620029",
  "linkReferences": {},
  "deployedLinkReferences": {}
}